{
  "_format": "hh-sol-artifact-1",
  "contractName": "SampleContract",
  "sourceName": "contracts/SampleContract.sol",
  "abi": [
    {
      "inputs": [
        {
          "internalType": "address",
          "name": "_daoVaultAddress",
          "type": "address"
        },
        {
          "internalType": "address",
          "name": "_tokenAddress",
          "type": "address"
        }
      ],
      "stateMutability": "nonpayable",
      "type": "constructor"
    },
    {
      "inputs": [
        {
          "internalType": "address",
          "name": "_address",
          "type": "address"
        },
        {
          "internalType": "uint256",
          "name": "_amount",
          "type": "uint256"
        }
      ],
      "name": "approve",
      "outputs": [],
      "stateMutability": "nonpayable",
      "type": "function"
    },
    {
      "inputs": [
        {
          "internalType": "uint256",
          "name": "_amount",
          "type": "uint256"
        }
      ],
      "name": "deposit",
      "outputs": [],
      "stateMutability": "nonpayable",
      "type": "function"
    },
    {
      "inputs": [
        {
          "internalType": "address",
          "name": "_recipient",
          "type": "address"
        }
      ],
      "name": "transfer",
      "outputs": [],
      "stateMutability": "nonpayable",
      "type": "function"
    }
  ],
  "bytecode": "0x608060405234801561001057600080fd5b5060405161039c38038061039c8339818101604052604081101561003357600080fd5b508051602090910151600080546001600160a01b039384166001600160a01b031991821617909155600180549390921692169190911790556103228061007a6000396000f3fe608060405234801561001057600080fd5b50600436106100415760003560e01c8063095ea7b3146100465780631a69523014610074578063b6b55f251461009a575b600080fd5b6100726004803603604081101561005c57600080fd5b506001600160a01b0381351690602001356100b7565b005b6100726004803603602081101561008a57600080fd5b50356001600160a01b0316610141565b610072600480360360208110156100b057600080fd5b5035610270565b600154604080517f095ea7b30000000000000000000000000000000000000000000000000000000081526001600160a01b038581166004830152602482018590529151919092169163095ea7b391604480830192600092919082900301818387803b15801561012557600080fd5b505af1158015610139573d6000803e3d6000fd5b505050505050565b600154604080517f70a0823100000000000000000000000000000000000000000000000000000000815230600482015290516001600160a01b039092169163a9059cbb91849184916370a08231916024808301926020929190829003018186803b1580156101ae57600080fd5b505afa1580156101c2573d6000803e3d6000fd5b505050506040513d60208110156101d857600080fd5b5051604080517fffffffff0000000000000000000000000000000000000000000000000000000060e086901b1681526001600160a01b03909316600484015260248301919091525160448083019260209291908290030181600087803b15801561024157600080fd5b505af1158015610255573d6000803e3d6000fd5b505050506040513d602081101561026b57600080fd5b505050565b60008054604080517fb6b55f250000000000000000000000000000000000000000000000000000000081526004810185905290516001600160a01b039092169263b6b55f259260248084019382900301818387803b1580156102d157600080fd5b505af11580156102e5573d6000803e3d6000fd5b505050505056fea264697066735822122052369ecc575578c4e20e57fb53a076b853d08c63d345000ec5329c2c3219371964736f6c63430007060033",
  "linkReferences": {},
  "deployedLinkReferences": {}
}