{
    "contractName": "ILVETHVault",
    "abi": [
        {
            "anonymous": false,
            "inputs": [
                {
                    "indexed": true,
                    "internalType": "address",
                    "name": "previousOwner",
                    "type": "address"
                },
                {
                    "indexed": true,
                    "internalType": "address",
                    "name": "newOwner",
                    "type": "address"
                }
            ],
            "name": "OwnershipTransferred",
            "type": "event"
        },
        {
            "inputs": [
                {
                    "internalType": "uint256",
                    "name": "amount",
                    "type": "uint256"
                }
            ],
            "name": "deposit",
            "outputs": [],
            "stateMutability": "nonpayable",
            "type": "function"
        },
        {
            "inputs": [],
            "name": "initialize",
            "outputs": [],
            "stateMutability": "nonpayable",
            "type": "function"
        },
        {
            "inputs": [],
            "name": "invest",
            "outputs": [],
            "stateMutability": "nonpayable",
            "type": "function"
        },
        {
            "inputs": [],
            "name": "owner",
            "outputs": [
                {
                    "internalType": "address",
                    "name": "",
                    "type": "address"
                }
            ],
            "stateMutability": "view",
            "type": "function"
        },
        {
            "inputs": [],
            "name": "renounceOwnership",
            "outputs": [],
            "stateMutability": "nonpayable",
            "type": "function"
        },
        {
            "inputs": [
                {
                    "internalType": "address",
                    "name": "newOwner",
                    "type": "address"
                }
            ],
            "name": "transferOwnership",
            "outputs": [],
            "stateMutability": "nonpayable",
            "type": "function"
        },
        {
            "inputs": [],
            "name": "yield",
            "outputs": [],
            "stateMutability": "nonpayable",
            "type": "function"
        }
    ],
    "bytecode": "608060405234801561001057600080fd5b50610e9b806100206000396000f3fe608060405234801561001057600080fd5b506004361061007d5760003560e01c80638da5cb5b1161005b5780638da5cb5b1461009c578063b6b55f25146100bb578063e8b5e51f146100ce578063f2fde38b146100d657600080fd5b80632859398414610082578063715018a61461008c5780638129fc1c14610094575b600080fd5b61008a6100e9565b005b61008a6103c1565b61008a61042c565b603354604080516001600160a01b039092168252519081900360200190f35b61008a6100c9366004610d82565b610514565b61008a610534565b61008a6100e4366004610cae565b610633565b604051631984db9960e01b815230600482015261017590738b4d8443a0229349a9892d4f7cbe89ef5f843f7290631984db99906024015b60206040518083038186803b15801561013857600080fd5b505afa15801561014c573d6000803e3d6000fd5b505050506040513d601f19601f820116820180604052508101906101709190610d9b565b6106fb565b604051630a38a8ff60e31b815260006004820152738b4d8443a0229349a9892d4f7cbe89ef5f843f72906351c547f890602401600060405180830381600087803b1580156101c257600080fd5b505af11580156101d6573d6000803e3d6000fd5b505060405163543a185d60e11b815230600482015260009250829150819081907325121eddf746c884dde4619b573a7b10714e2a369063a87430ba9060240160806040518083038186803b15801561022d57600080fd5b505afa158015610241573d6000803e3d6000fd5b505050506040513d601f19601f820116820180604052508101906102659190610db4565b935093509350935061027984848484610740565b6040516313935a8360e11b8152306004820152600060248201819052907325121eddf746c884dde4619b573a7b10714e2a3690632726b5069060440160a06040518083038186803b1580156102cd57600080fd5b505afa1580156102e1573d6000803e3d6000fd5b505050506040513d601f19601f820116820180604052508101906103059190610cf2565b905061031e816000015182602001518360800151610795565b610344816040015167ffffffffffffffff16826060015167ffffffffffffffff166107e9565b6040516370a0823160e01b815230600482015261037f9073767fe9edc9e0df98e07454847909b5e959d7ca0e906370a0823190602401610120565b6040516370a0823160e01b81523060048201526103ba9073398aea1c9ceb7de800284bb399a15e0efe5a9ec2906370a0823190602401610120565b5050505050565b6033546001600160a01b031633146104205760405162461bcd60e51b815260206004820181905260248201527f4f776e61626c653a2063616c6c6572206973206e6f7420746865206f776e657260448201526064015b60405180910390fd5b61042a6000610833565b565b600054610100900460ff1680610445575060005460ff16155b6104a85760405162461bcd60e51b815260206004820152602e60248201527f496e697469616c697a61626c653a20636f6e747261637420697320616c72656160448201526d191e481a5b9a5d1a585b1a5e995960921b6064820152608401610417565b600054610100900460ff161580156104ca576000805461ffff19166101011790555b6104ff736a091a3406e0073c3cd6340122143009adac0eda738b4d8443a0229349a9892d4f7cbe89ef5f843f72600019610885565b8015610511576000805461ff00191690555b50565b610511736a091a3406e0073c3cd6340122143009adac0eda3330846109dc565b6040516370a0823160e01b8152306004820152738b4d8443a0229349a9892d4f7cbe89ef5f843f72906352044ec990736a091a3406e0073c3cd6340122143009adac0eda906370a082319060240160206040518083038186803b15801561059a57600080fd5b505afa1580156105ae573d6000803e3d6000fd5b505050506040513d601f19601f820116820180604052508101906105d29190610d9b565b6040516001600160e01b031960e084901b16815260048101919091526000602482018190526044820152606401600060405180830381600087803b15801561061957600080fd5b505af115801561062d573d6000803e3d6000fd5b50505050565b6033546001600160a01b0316331461068d5760405162461bcd60e51b815260206004820181905260248201527f4f776e61626c653a2063616c6c6572206973206e6f7420746865206f776e65726044820152606401610417565b6001600160a01b0381166106f25760405162461bcd60e51b815260206004820152602660248201527f4f776e61626c653a206e6577206f776e657220697320746865207a65726f206160448201526564647265737360d01b6064820152608401610417565b61051181610833565b6105118160405160240161071191815260200190565b60408051601f198184030181529190526020810180516001600160e01b031663f5b1bba960e01b179052610a14565b6040516024810185905260448101849052606481018390526084810182905261062d9060a40160408051601f198184030181529190526020810180516001600160e01b0316632e50569f60e11b179052610a14565b604051602481018490526044810183905281151560648201526107e49060840160408051601f198184030181529190526020810180516001600160e01b03166367570ff760e01b179052610a14565b505050565b604051602481018390526044810182905261082f9060640160408051601f198184030181529190526020810180516001600160e01b031662d81ed360e71b179052610a14565b5050565b603380546001600160a01b038381166001600160a01b0319831681179093556040519116919082907f8be0079c531659141344cd1fd0a4f28419497f9722a3daafe3b4186f6b6457e090600090a35050565b80158061090e5750604051636eb1769f60e11b81523060048201526001600160a01b03838116602483015284169063dd62ed3e9060440160206040518083038186803b1580156108d457600080fd5b505afa1580156108e8573d6000803e3d6000fd5b505050506040513d601f19601f8201168201806040525081019061090c9190610d9b565b155b6109795760405162461bcd60e51b815260206004820152603660248201527f5361666545524332303a20617070726f76652066726f6d206e6f6e2d7a65726f60448201527520746f206e6f6e2d7a65726f20616c6c6f77616e636560501b6064820152608401610417565b6040516001600160a01b0383166024820152604481018290526107e490849063095ea7b360e01b906064015b60408051601f198184030181529190526020810180516001600160e01b03166001600160e01b031990931692909217909152610a35565b6040516001600160a01b038085166024830152831660448201526064810182905261062d9085906323b872dd60e01b906084016109a5565b80516a636f6e736f6c652e6c6f67602083016000808483855afa5050505050565b6000610a8a826040518060400160405280602081526020017f5361666545524332303a206c6f772d6c6576656c2063616c6c206661696c6564815250856001600160a01b0316610b079092919063ffffffff16565b8051909150156107e45780806020019051810190610aa89190610cd7565b6107e45760405162461bcd60e51b815260206004820152602a60248201527f5361666545524332303a204552433230206f7065726174696f6e20646964206e6044820152691bdd081cdd58d8d9595960b21b6064820152608401610417565b6060610b168484600085610b20565b90505b9392505050565b606082471015610b815760405162461bcd60e51b815260206004820152602660248201527f416464726573733a20696e73756666696369656e742062616c616e636520666f6044820152651c8818d85b1b60d21b6064820152608401610417565b843b610bcf5760405162461bcd60e51b815260206004820152601d60248201527f416464726573733a2063616c6c20746f206e6f6e2d636f6e74726163740000006044820152606401610417565b600080866001600160a01b03168587604051610beb9190610dea565b60006040518083038185875af1925050503d8060008114610c28576040519150601f19603f3d011682016040523d82523d6000602084013e610c2d565b606091505b5091509150610c3d828286610c48565b979650505050505050565b60608315610c57575081610b19565b825115610c675782518084602001fd5b8160405162461bcd60e51b81526004016104179190610e06565b80518015158114610c9157600080fd5b919050565b805167ffffffffffffffff81168114610c9157600080fd5b600060208284031215610cc057600080fd5b81356001600160a01b0381168114610b1957600080fd5b600060208284031215610ce957600080fd5b610b1982610c81565b600060a08284031215610d0457600080fd5b60405160a0810181811067ffffffffffffffff82111715610d3557634e487b7160e01b600052604160045260246000fd5b80604052508251815260208301516020820152610d5460408401610c96565b6040820152610d6560608401610c96565b6060820152610d7660808401610c81565b60808201529392505050565b600060208284031215610d9457600080fd5b5035919050565b600060208284031215610dad57600080fd5b5051919050565b60008060008060808587031215610dca57600080fd5b505082516020840151604085015160609095015191969095509092509050565b60008251610dfc818460208701610e39565b9190910192915050565b6020815260008251806020840152610e25816040850160208701610e39565b601f01601f19169190910160400192915050565b60005b83811015610e54578181015183820152602001610e3c565b8381111561062d575050600091015256fea2646970667358221220d58dc40fba5d73935d4f7988fb6bcf477f7cf3e865bef103c0efa0a149c7147064736f6c63430008070033",
    "sourcePath": "/home/siew/DAOventures/Metaverse-Farmer/contracts/ILVETHVault.sol",
    "compiler": {
        "name": "solc",
        "version": "0.8.7+commit.e28d00a7"
    },
    "functionHashes": {
        "deposit(uint256)": "b6b55f25",
        "initialize()": "8129fc1c",
        "invest()": "e8b5e51f",
        "owner()": "8da5cb5b",
        "renounceOwnership()": "715018a6",
        "transferOwnership(address)": "f2fde38b",
        "yield()": "28593984"
    },
    "gasEstimates": {
        "creation": {
            "codeDepositCost": "747800",
            "executionCost": "779",
            "totalCost": "748579"
        },
        "external": {
            "deposit(uint256)": "infinite",
            "initialize()": "infinite",
            "invest()": "infinite",
            "owner()": "2292",
            "renounceOwnership()": "28140",
            "transferOwnership(address)": "28343",
            "yield()": "infinite"
        }
    }
}