{
  "_format": "hh-sol-artifact-1",
  "contractName": "SampleContract",
  "sourceName": "contracts/SampleContract.sol",
  "abi": [
    {
      "inputs": [
        {
          "internalType": "address",
          "name": "_daoVaultAddress",
          "type": "address"
        },
        {
          "internalType": "address",
          "name": "_tokenAddress",
          "type": "address"
        }
      ],
      "stateMutability": "nonpayable",
      "type": "constructor"
    },
    {
      "inputs": [
        {
          "internalType": "address",
          "name": "_address",
          "type": "address"
        },
        {
          "internalType": "uint256",
          "name": "_amount",
          "type": "uint256"
        }
      ],
      "name": "approve",
      "outputs": [],
      "stateMutability": "nonpayable",
      "type": "function"
    },
    {
      "inputs": [
        {
          "internalType": "uint256",
          "name": "_amount",
          "type": "uint256"
        }
      ],
      "name": "deposit",
      "outputs": [],
      "stateMutability": "nonpayable",
      "type": "function"
    },
    {
      "inputs": [
        {
          "internalType": "address",
          "name": "_recipient",
          "type": "address"
        }
      ],
      "name": "transfer",
      "outputs": [],
      "stateMutability": "nonpayable",
      "type": "function"
    },
    {
      "inputs": [
        {
          "internalType": "uint256",
          "name": "_amount",
          "type": "uint256"
        }
      ],
      "name": "withdraw",
      "outputs": [],
      "stateMutability": "nonpayable",
      "type": "function"
    }
  ],
  "bytecode": "0x608060405234801561001057600080fd5b506040516104253803806104258339818101604052604081101561003357600080fd5b508051602090910151600080546001600160a01b039384166001600160a01b031991821617909155600180549390921692169190911790556103ab8061007a6000396000f3fe608060405234801561001057600080fd5b506004361061004c5760003560e01c8063095ea7b3146100515780631a6952301461007f5780632e1a7d4d146100a5578063b6b55f25146100c2575b600080fd5b61007d6004803603604081101561006757600080fd5b506001600160a01b0381351690602001356100df565b005b61007d6004803603602081101561009557600080fd5b50356001600160a01b0316610169565b61007d600480360360208110156100bb57600080fd5b5035610298565b61007d600480360360208110156100d857600080fd5b5035610314565b600154604080517f095ea7b30000000000000000000000000000000000000000000000000000000081526001600160a01b038581166004830152602482018590529151919092169163095ea7b391604480830192600092919082900301818387803b15801561014d57600080fd5b505af1158015610161573d6000803e3d6000fd5b505050505050565b600154604080517f70a0823100000000000000000000000000000000000000000000000000000000815230600482015290516001600160a01b039092169163a9059cbb91849184916370a08231916024808301926020929190829003018186803b1580156101d657600080fd5b505afa1580156101ea573d6000803e3d6000fd5b505050506040513d602081101561020057600080fd5b5051604080517fffffffff0000000000000000000000000000000000000000000000000000000060e086901b1681526001600160a01b03909316600484015260248301919091525160448083019260209291908290030181600087803b15801561026957600080fd5b505af115801561027d573d6000803e3d6000fd5b505050506040513d602081101561029357600080fd5b505050565b60008054604080517f2e1a7d4d0000000000000000000000000000000000000000000000000000000081526004810185905290516001600160a01b0390921692632e1a7d4d9260248084019382900301818387803b1580156102f957600080fd5b505af115801561030d573d6000803e3d6000fd5b5050505050565b60008054604080517fb6b55f250000000000000000000000000000000000000000000000000000000081526004810185905290516001600160a01b039092169263b6b55f259260248084019382900301818387803b1580156102f957600080fdfea264697066735822122042e6a1a9a8968b648cd2e2caaa2b4b2b145d339332c99203d63382e044f53e7164736f6c63430007060033",
  "linkReferences": {},
  "deployedLinkReferences": {}
}