{
  "_format": "hh-sol-artifact-1",
  "contractName": "SampleContract",
  "sourceName": "contracts/SampleContract.sol",
  "abi": [
    {
      "inputs": [
        {
          "internalType": "address",
          "name": "_daoVaultAddress",
          "type": "address"
        },
        {
          "internalType": "address",
          "name": "_tokenAddress",
          "type": "address"
        }
      ],
      "stateMutability": "nonpayable",
      "type": "constructor"
    },
    {
      "inputs": [
        {
          "internalType": "address",
          "name": "_address",
          "type": "address"
        },
        {
          "internalType": "uint256",
          "name": "_amount",
          "type": "uint256"
        }
      ],
      "name": "approve",
      "outputs": [],
      "stateMutability": "nonpayable",
      "type": "function"
    },
    {
      "inputs": [
        {
          "internalType": "uint256",
          "name": "_amount",
          "type": "uint256"
        },
        {
          "internalType": "uint256",
          "name": "_tokenIndex",
          "type": "uint256"
        }
      ],
      "name": "deposit",
      "outputs": [],
      "stateMutability": "nonpayable",
      "type": "function"
    },
    {
      "inputs": [
        {
          "internalType": "address",
          "name": "_recipient",
          "type": "address"
        }
      ],
      "name": "transfer",
      "outputs": [],
      "stateMutability": "nonpayable",
      "type": "function"
    },
    {
      "inputs": [
        {
          "internalType": "uint256",
          "name": "_amount",
          "type": "uint256"
        },
        {
          "internalType": "uint256",
          "name": "_tokenIndex",
          "type": "uint256"
        }
      ],
      "name": "withdraw",
      "outputs": [],
      "stateMutability": "nonpayable",
      "type": "function"
    }
  ],
  "bytecode": "0x608060405234801561001057600080fd5b506040516103a83803806103a88339818101604052604081101561003357600080fd5b508051602090910151600080546001600160a01b039384166001600160a01b0319918216179091556001805493909216921691909117905561032e8061007a6000396000f3fe608060405234801561001057600080fd5b506004361061004c5760003560e01c8063095ea7b3146100515780631a6952301461007f578063441a3e70146100a5578063e2bbb158146100c8575b600080fd5b61007d6004803603604081101561006757600080fd5b506001600160a01b0381351690602001356100eb565b005b61007d6004803603602081101561009557600080fd5b50356001600160a01b031661015c565b61007d600480360360408110156100bb57600080fd5b508035906020013561025a565b61007d600480360360408110156100de57600080fd5b50803590602001356102a9565b6001546040805163095ea7b360e01b81526001600160a01b038581166004830152602482018590529151919092169163095ea7b391604480830192600092919082900301818387803b15801561014057600080fd5b505af1158015610154573d6000803e3d6000fd5b505050505050565b600154604080516370a0823160e01b815230600482015290516001600160a01b039092169163a9059cbb91849184916370a08231916024808301926020929190829003018186803b1580156101b057600080fd5b505afa1580156101c4573d6000803e3d6000fd5b505050506040513d60208110156101da57600080fd5b5051604080516001600160e01b031960e086901b1681526001600160a01b03909316600484015260248301919091525160448083019260209291908290030181600087803b15801561022b57600080fd5b505af115801561023f573d6000803e3d6000fd5b505050506040513d602081101561025557600080fd5b505050565b6000805460408051630441a3e760e41b8152600481018690526024810185905290516001600160a01b039092169263441a3e709260448084019382900301818387803b15801561014057600080fd5b6000805460408051631c57762b60e31b8152600481018690526024810185905290516001600160a01b039092169263e2bbb1589260448084019382900301818387803b15801561014057600080fdfea26469706673582212203083c61b5a619eeaaee27067cd598289917a45269f76e8d0f11c3126f8fdcdfb64736f6c63430007060033",
  "linkReferences": {},
  "deployedLinkReferences": {}
}